:020000040800F2
:1000000000180020550B0008F50A0008FB0A00083C
:1000100000000000000000000000000000000000E0
:10002000000000000000000000000000010B0008BC
:1000300000000000000000000B0B0008150B00087A
:10004000A50B000800000000A50B0008A50B000888
:10005000A50B0008A50B0008A50B0008A50B0008C0
:1000600000000000A50B0008A50B0008A50B000868
:10007000A50B0008A50B0008A50B00080000000058
:10008000A50B00080000000000000000250B000880
:1000900000000000A50B0008A50B0008A50B000838
:1000A00000000000A50B000800000000A50B0008E0
:1000B000A50B000800000000000000000000000088
:1000C00010B5064C2378002B07D1054B002B02D02E
:1000D000044800E000BF0123237010BD340000205D
:1000E00000000000B0240008044B10B5002B03D022
:1000F0000349044800E000BF10BDC04600000000F6
:1001000038000020B0240008002243088B4274D33A
:1001100003098B425FD3030A8B4244D3030B8B4208
:1001200028D3030C8B420DD3FF22090212BA030C11
:100130008B4202D31212090265D0030B8B4219D3F2
:1001400000E0090AC30B8B4201D3CB03C01A524112
:10015000830B8B4201D38B03C01A5241430B8B425A
:1001600001D34B03C01A5241030B8B4201D30B0343
:10017000C01A5241C30A8B4201D3CB02C01A52416A
:10018000830A8B4201D38B02C01A5241430A8B422D
:1001900001D34B02C01A5241030A8B4201D30B0216
:1001A000C01A5241CDD2C3098B4201D3CB01C01A30
:1001B000524183098B4201D38B01C01A524143093A
:1001C0008B4201D34B01C01A524103098B4201D328
:1001D0000B01C01A5241C3088B4201D3CB00C01A95
:1001E000524183088B4201D38B00C01A524143080D
:1001F0008B4201D34B00C01A5241411A00D2014632
:10020000524110467047FFE701B5002000F006F8A4
:1002100002BDC0460029F7D076E770477047C04658
:1002200080B582B000AF0200FB1D1A70034BFA1DAF
:1002300012781A70C046BD4602B080BD5200002040
:1002400080B500AF124B1B781A000823134005D06D
:10025000A023DB05802212019A6104E0A023DB05C4
:10026000802212019A620A4B1B785BB2072213406C
:100270005AB2074B1B785B105BB238210B405BB264
:1002800013435BB2DAB2034B1A70C046BD4680BD61
:10029000520000205000002080B582B000AF002343
:1002A0003B603AE000237B6014E001227B689A40C7
:1002B00013005AB21F4B1B785BB213435BB2DAB226
:1002C0001C4B1A70FFF7BCFF462000F0F7FC7B6860
:1002D00001337B607B68062BE7DD00237B6016E043
:1002E00001227B689A4013005BB2DB435BB2114A88
:1002F000127852B213405BB2DAB20E4B1A70FFF7AB
:100300009FFF462000F0DAFC7B6801337B607B684E
:10031000062BE5DD3B6801333B603B68012BC1DD0B
:10032000AF239B00180000F0C9FCC046BD4602B0D8
:1003300080BDC0465200002080B582B000AF134B94
:1003400000221A70FFF77CFFAF2000F0B7FC0023FB
:100350007B6012E00D4B08221A70FFF771FFAF208F
:1003600000F0ACFC094B00221A70FFF769FFAF20C8
:1003700000F0A4FC7B6801337B607B68002BE9DD27
:10038000C046C046BD4602B080BDC04652000020F7
:1003900080B582B000AF00237B6012E00D4B7F225E
:1003A0001A70FFF74DFFAF2000F088FC094B0022C8
:1003B0001A70FFF745FFAF2000F080FC7B68013327
:1003C0007B607B68012BE9DDC046C046BD4602B0BC
:1003D00080BDC04652000020B0B584B000AF02001E
:1003E000FB1D1A700E23FC18FB1D1B7864211800DE
:1003F000FFF78AFE030023700F23FB1800221A70F8
:1004000015E03F4B01221A70FFF71AFFC82000F0D9
:1004100055FC3B4B00221A70FFF712FFC82000F07A
:100420004DFC0F217B181A787B1801321A700F25AA
:100430007A190E243B1912781B789A42E1D3FB1DDE
:100440001B780A211800FFF75FFE0300DBB23C199E
:100450000A211800FFF7DEFE0B0023707B19002233
:100460001A7015E0264B02221A70FFF7E9FEC82029
:1004700000F024FC224B00221A70FFF7E1FEC82096
:1004800000F01CFC0F217B181A787B1801321A70BF
:100490000F257A190E217B1812781B789A42E1D326
:1004A0007C18FB1D1B780A211800FFF7B3FE0B0018
:1004B00023707B1900221A7015E0114B04221A7068
:1004C000FFF7BEFEC82000F0F9FB0D4B00221A70AA
:1004D000FFF7B6FEC82000F0F1FB0F217B181A7859
:1004E0007B1801321A700F23FA180E23FB181278AA
:1004F0001B789A42E1D3C046C046BD4604B0B0BDA9
:100500005200002080B500AF614B1B681A68604B39
:100510005B685B00032199400B00DB4319005C4BD7
:100520001B680A401A605A4B9B681A68584BDB6874
:100530005B00032199400B00DB431900544B9B687F
:100540000A401A60524B1B691A68514B5B695B0089
:10055000032199400B00DB4319004D4B1B690A40F6
:100560001A604C4B1B78DBB21A004B4B1B78DBB28A
:100570001A4113000122134077D0474B1B78DBB29E
:100580001A00464B5200D35C414ADB00D3180433B7
:100590001B6801229A4011003F4B1B78DBB21A0006
:1005A0003E4B5200D35C1A00394BD200D3580A009C
:1005B0009A61394B1B78DBB2384A5B00D3180133A0
:1005C0001B78334ADB00D31804331B6801229A409E
:1005D0001100314B1B78DBB2304A5B00D31801337A
:1005E0001B781A002A4BD200D3580A009A622A4B71
:1005F0001B78DBB21A00294B5200D35C244ADB0083
:10060000D31804331B685B0001229A401100224B6F
:100610001B78DBB21A00214B5200D35C1A001C4B32
:10062000D200D3581A680A431A601B4B1B78DBB2FE
:100630001A4A5B00D31801331B78154ADB00D31824
:1006400004331B685B0001229A401100124B1B7897
:10065000DBB2124A5B00D31801331B781A000C4B33
:10066000D200D3581A680A431A600B4B1B78DBB2CE
:100670000133DAB2084B1A70074B1B78DBB2052B3B
:1006800002D9054B00221A70C046BD4680BDC04647
:100690000000002050000020510000201800002021
:1006A00080B582B000AF00F08DFA00F0C5F864208C
:1006B00000F004FB00F04EF900F002F9594B18006D
:1006C00001F04AF9FFF7E8FD574B1B6801229A40F9
:1006D0001300DBB21800FFF7A3FDFFF7B1FD524B8B
:1006E0001B68052B02DD514B01221A704E4B1B6813
:1006F000002B02D14D4B00221A7000F0D5FA0300F6
:100700007B60C04600F0D0FA02007B68D31A484AEA
:10071000128893420AD880239A01A023DB05110096
:10072000180000F041FD0300012BEBD000F0BCFAF3
:1007300002007B68D31A3E4A1288934262D8C046B0
:1007400080239A01A023DB051100180000F02CFD86
:10075000031EF5D0344B1B68032B30D1FFF7ECFDA3
:10076000344B1B780133DAB2324B1A70304B1B8892
:10077000642B06D92E4B1B88063B9AB22C4B1A8051
:10078000A2E72B4B1B88642B0AD8294B1B881E2BF6
:1007900006D9274B1B88033B9AB2254B1A8040E0B1
:1007A000234B1B881E2B8FD8214B1B88052B8BD9E5
:1007B0001F4B1B88013B9AB21D4B1A8084E71A4BD2
:1007C00000221A60FA235B00180000F077FAFFF7A6
:1007D000DFFDFA235B00180000F070FA154B1B7860
:1007E0001800FFF7F9FDFA235B00180000F066FA25
:1007F000104B00221A700E4BAF2252001A80FFF7E6
:100800004BFD61E7094B1B78002B05D1064B1B689C
:100810005A1C054B1A6057E7034B1B685A1E024BC4
:100820001A6051E754000020A4000020A00000201E
:1008300024000020A100002090B58DB000AF14244A
:100840003B1918001C231A00002101F029FE3B006F
:10085000180014231A00002101F022FE3B19022285
:100860001A603B1980225200DA603B198022920103
:100870001A613B1940225A613B19180000F0CEFC66
:10088000031E01D000F0E4F83B0007221A603B0091
:1008900000225A603B0000229A603B000022DA608E
:1008A0003B0000221A613B000021180000F0B0FE5E
:1008B000031E01D000F0CCF8C046BD460DB090BD7F
:1008C00080B588B000AF3B1D18001C231A00002122
:1008D00001F0E6FD1D4B1E4A1A601C4B0F225A60A8
:1008E0001A4B00229A60194B2F22DA60174B002214
:1008F0001A61164B80229A61144B180000F0D4FF45
:10090000031E01D000F0A4F8104B180001F072F89B
:10091000031E01D000F09CF83B1D00221A603B1D15
:1009200000225A603B1D00229A603B1D00221A6182
:10093000391D064B0022180001F0EEF9031E01D00C
:1009400000F086F8C046BD4608B080BD54000020C7
:100950000020004090B589B000AF0C243B1918006E
:1009600014231A00002101F09BFD314B5A6B304BD0
:1009700002210A435A632E4B5B6B02221340BB6079
:10098000BB682B4B5A6B2A4B01210A435A63284BF5
:100990005B6B012213407B607B68264B0022802129
:1009A000180000F01EFC2449A023DB0500221800DB
:1009B00000F017FC3B1980221A603B1901225A6093
:1009C0003B1900229A603B190022DA603B19194A50
:1009D0001900100000F07EFA3B19174A1A603B1903
:1009E00001225A603B1900229A603B190022DA600A
:1009F0003A19A023DB051100180000F06BFA210062
:100A00007B18802292011A607B1800225A607B18A2
:100A100001229A607A18A023DB051100180000F06B
:100A200059FA142000F06CF9C046BD4609B090BDDB
:100A300000100240000400500118000080B582B090
:100A400000AF7860FFF75EFDC046BD4602B080BDD6
:100A500080B500AF72B6C046FEE7000080B582B038
:100A600000AF0F4B1A6C0E4B01210A431A640C4B5A
:100A70001B6C012213407B607B68094BDA6B084BCF
:100A8000802149050A43DA63054BDA6B80235B0555
:100A900013403B603B68C046BD4602B080BDC046C7
:100AA0000010024080B584B000AF78607B681B689E
:100AB0000E4A934215D10E4B1A6C0D4B8021090240
:100AC0000A431A640A4B1A6C80231B021340FB6012
:100AD000FB6800220021132000F0CAF9132000F067
:100AE000DCF9C046BD4604B080BDC04600200040D1
:100AF0000010024080B500AFFEE780B500AFFEE712
:100B000080B500AFC046BD4680BD80B500AFC046D1
:100B1000BD4680BD80B500AF00F0B6F8C046BD460A
:100B200080BD000080B500AF034B180000F0C2FF8D
:100B3000C046BD4680BDC0465400002080B500AF11
:100B4000034B802212059A60C046BD4680BDC04658
:100B500000ED00E00D488546002103E00C4B5B589A
:100B6000435004310B480C4B42189A42F6D30B4ABF
:100B700002E0002313600432094B9A42F9D3FFF7D5
:100B8000DDFF01F069FCFFF78BFDFEE70018002098
:100B900064250008000000203400002034000020FC
:100BA000AC000020FEE7000080B582B000AF7860A6
:100BB000034B7A68DA63C046BD4602B080BDC046CA
:100BC0000000014080B582B000AFFB1D00221A700A
:100BD000032000F00FF8031E03D0FB1D01221A7042
:100BE00001E0FFF73BFFFB1D1B781800BD4602B07C
:100BF00080BD000090B585B000AF78600F23FB1872
:100C000000221A701D4B1B68002B2BD01C4B1C683C
:100C10001A4B1B681900FA239800FFF775FA0300B6
:100C200019002000FFF770FA0300180000F045F9E2
:100C3000031E12D17B68032B0AD8796801235B421B
:100C40000022180000F014F90E4B7A681A600DE0CB
:100C50000F23FB1801221A7008E00F23FB18012252
:100C60001A7003E00F23FB1801221A700F23FB18E0
:100C70001B781800BD4605B090BDC046300000206E
:100C8000280000202C00002080B500AF044B1A681B
:100C9000044B1B68D218024B1A60C046BD4680BD8B
:100CA000A80000203000002080B500AF024B1B6878
:100CB0001800BD4680BDC046A800002080B584B0A5
:100CC00000AF7860FFF7F0FF0300BB607B68FB605C
:100CD000FB68013304D0094B1B68FA68D318FB602A
:100CE000C046FFF7E1FF0200BB68D31AFA689A42D8
:100CF000F7D8C046C046BD4604B080BD30000020D5
:100D000080B582B000AF78607B681800FFF74CFFB9
:100D1000C046BD4602B080BD80B582B000AF0200C3
:100D2000FB1D1A70FB1D1B787F2B09D8FB1D1B7840
:100D30001A001F231A40044B012191400A001A6037
:100D4000C046BD4602B080BD00E100E090B583B072
:100D500000AF02003960FB1D1A70FB1D1B787F2B52
:100D600028D82F4AFB1D1B785BB29B08C0339B0021
:100D70009B58FA1D1278110003220A40D200FF216D
:100D800091400A00D2431A4011003B689B01FF22A8
:100D90001A40FB1D1B78180003230340DB009A4018
:100DA0001F48FB1D1B785BB29B080A43C0339B00A6
:100DB0001A5031E01B4AFB1D1B7819000F230B4012
:100DC000083B9B0806339B00D31804331B68FA1DAD
:100DD0001278110003220A40D200FF2191400A003C
:100DE000D2431A4011003B689B01FF221A40FB1DB1
:100DF0001B78180003230340DB009A400948FB1DC1
:100E00001B781C000F232340083B9B080A43063332
:100E10009B00C31804331A60C046BD4603B090BDA2
:100E200000E100E000ED00E080B582B000AF786046
:100E30007B685A1E80235B049A4201D3012310E091
:100E40000A4B7A68013A5A6001235B420321180079
:100E5000FFF77CFF054B00229A60044B07221A60C3
:100E600000231800BD4602B080BDC04610E000E07F
:100E700080B584B000AFB9607A600F217B18021C86
:100E80001A70BA687B181B785BB211001800FFF764
:100E90005DFFC046BD4604B080BD80B582B000AFE6
:100EA0000200FB1D1A70FB1D1B785BB21800FFF7D8
:100EB00033FFC046BD4602B080BD80B582B000AFF2
:100EC00078607B681800FFF7AFFF03001800BD468D
:100ED00002B080BD80B586B000AF78603960002375
:100EE0003B614DE13B681B6801213A6991400A0072
:100EF0001340FB60FB68002B00D13EE13B685B6860
:100F0000022B03D03B685B68122B25D13B69DA08C2
:100F10007B6808329200D3587B613B6907221340FB
:100F20009B000F229A401300DA437B6913407B61D8
:100F30003B681B690F221A403B6907210B409B004D
:100F40009A4013007A6913437B613B69DA087B6836
:100F5000083292007969D1507B681B687B613B69DC
:100F60005B0003229A401300DA437B6913407B61E4
:100F70003B685B6803221A403B695B009A401300A0
:100F80007A6913437B617B687A691A603B685B68A6
:100F9000012B0BD03B685B68022B07D03B685B687A
:100FA000112B03D03B685B68122B30D17B689B68A8
:100FB0007B613B695B0003229A401300DA437B6943
:100FC00013407B613B68DA683B695B009A40130021
:100FD0007A6913437B617B687A699A607B685B6896
:100FE0007B6101223B699A401300DA437B6913401D
:100FF0007B613B685B681B0901221A403B699A4090
:1010000013007A6913437B617B687A695A603B6895
:101010005B68032B17D07B68DB687B613B695B00F7
:1010200003229A401300DA437B6913407B613B68DB
:101030009A683B695B009A4013007A6913437B61AD
:101040007B687A69DA603B685A6880235B051340E5
:1010500000D192E0504A3B699B0818339B009B5893
:101060007B613B6903221340DB000F229A4013008F
:10107000DA437B6913407B617A68A023DB059A42DF
:1010800013D07B68454A93420DD07B68444A934213
:1010900007D07B68434A934201D1032306E005232E
:1010A00004E0022302E0012300E000233A69032167
:1010B0000A40D20093407A6913437B6136493B6909
:1010C0009B0818339B007A695A50334A8023D358BF
:1010D0007B61FB68DA437B6913407B613B685A683C
:1010E00080235B02134003D07A69FB6813437B6162
:1010F000294980227B698B50274A8423D3587B61FE
:10110000FB68DA437B6913407B613B685A68802344
:101110009B02134003D07A69FB6813437B611E492D
:1011200084227B698B501C4B1B687B61FB68DA4314
:101130007B6913407B613B685A6880235B031340E3
:1011400003D07A69FB6813437B61134B7A691A6099
:10115000114B5B687B61FB68DA437B6913407B6101
:101160003B685A6880239B03134003D07A69FB686D
:1011700013437B61084B7A695A603B6901333B61D9
:101180003B681A683B69DA40131E00D0AAE6C046E5
:10119000C046BD4606B080BD0018024000040050A5
:1011A000000800500014005080B584B000AF786093
:1011B0000A00BB1C1A807B681B69BA1C128813408A
:1011C00004D00F23FB1801221A7003E00F23FB1831
:1011D00000221A700F23FB181B781800BD4604B0BC
:1011E00080BD80B582B000AF786008001100BB1CE4
:1011F000021C1A807B1C0A1C1A707B1C1B78002B9B
:1012000004D0BB1C1A887B689A6103E0BB1C1A8857
:101210007B689A62C046BD4602B080BD80B586B08C
:1012200000AF78607B68002B01D10123E5E17B688A
:101230001B680122134000D16FE0C44B9B68382229
:1012400013407B617B69082B0BD1C04B1A6880234C
:101250009B02134061D07B685B68002B5DD101234A
:10126000CBE17B685A6880235B029A4207D1B74B77
:101270001A68B64B802149020A431A6020E07B6855
:101280005A68A023DB029A420ED1B04B1A68AF4BCA
:101290008021C9020A431A60AC4B1A68AB4B80210B
:1012A00049020A431A600BE0A84B1A68A74BA849E9
:1012B0000A401A60A54B1A68A44BA6490A401A6056
:1012C0007B685B68002B14D0FFF7EEFC03003B61EA
:1012D00008E0FFF7E9FC02003B69D31A642B01D94F
:1012E00003238AE1994B1A6880239B021340F0D0B4
:1012F00013E0FFF7D9FC03003B6108E0FFF7D4FCE3
:1013000002003B69D31A642B01D9032375E18F4B8B
:101310001A6880239B021340F0D17B681B6802226D
:10132000134000D18CE0894B9B68382213407B61CD
:101330007B69002B35D1854B1A688023DB00134075
:1013400005D07B68DB68002B01D1012355E17F4B81
:101350005B68814A134019007B685B691A027B4B0A
:101360000A435A607B69002B12D1784B1B687B4A79
:10137000134019007B681A69744B0A431A60734B57
:101380001B68DB0A07221340754ADA40754B1A6066
:10139000754B1B681800FFF72DFC031E50D001236E
:1013A0002BE17B68DB68002B30D0684B1B686B4AF5
:1013B000134019007B681A69644B0A431A60634B37
:1013C0001A68624B802149000A431A60FFF76CFCDF
:1013D00003003B6108E0FFF767FC02003B69D31A9A
:1013E000022B01D9032308E1584B1A688023DB0044
:1013F0001340F0D0554B5B68574A134019007B6887
:101400005B691A02514B0A435A6019E04F4B1A6844
:101410004E4B56490A401A60FFF746FC03003B61F9
:1014200008E0FFF741FC02003B69D31A022B01D907
:101430000323E2E0454B1A688023DB001340F0D120
:101440007B681B680822134047D0404B9B683822BA
:101450001340182B0AD13D4B1B6E022213403CD087
:101460007B689B69002B38D10123C6E07B689B69B0
:10147000002B19D0354B1A6E344B01210A431A66E2
:10148000FFF712FC03003B6108E0FFF70DFC0200D0
:101490003B69D31A022B01D90323AEE02B4B1B6E01
:1014A00002221340F1D018E0284B1A6E274B01217D
:1014B0008A431A66FFF7F8FB03003B6108E0FFF779
:1014C000F3FB02003B69D31A022B01D9032394E0FA
:1014D0001E4B1B6E02221340F1D17B681B68042255
:1014E000134000D188E00F23FB1800221A70174B1D
:1014F0009B6838221340202B0CD1144BDB6D022249
:10150000134000D178E07B689B68002B00D073E02B
:10151000012372E07B689B68012B06D10B4BDA6DCF
:101520000A4B01210A43DA652EE07B689B68052B94
:101530001ED1064BDA6D054B04210A43DA65034BD5
:10154000DA6D024B01210A43DA651DE0001002400A
:10155000FFFFFEFFFFFFFBFFFF80FFFFFFC7FFFF57
:10156000006CDC02280000202C000020FFFEFFFFA2
:10157000244BDA6D234B01218A43DA65214BDA6D66
:10158000204B04218A43DA657B689B68002B14D0CA
:10159000FFF78AFB03003B6109E0FFF785FB0200D0
:1015A0003B69D31A184A934201D9032325E0154B0E
:1015B000DB6D02221340F0D013E0FFF775FB030050
:1015C0003B6109E0FFF770FB02003B69D31A0E4A4A
:1015D000934201D9032310E00A4BDB6D0222134032
:1015E000F0D10F23FB181B78012B05D1054BDA6BCB
:1015F000044B06490A40DA6300231800BD4606B0D2
:1016000080BDC0460010024088130000FFFFFFEFBE
:1016100080B584B000AF786039607B68002B01D161
:101620000123E9E0764B1B68072213403A689A428F
:101630001ED9734B1B68072293431900704B3A68FD
:101640000A431A60FFF730FB0300FB6009E0FFF775
:101650002BFB0200FB68D31A6A4A934201D9032389
:10166000CAE0674B1B68072213403A689A42EED1E2
:101670007B681B680222134017D07B681B6804221A
:10168000134008D0604B9B68604A1A405E4BB02103
:1016900009010A439A605C4B9B685D4A134019003C
:1016A0007B68DA68584B0A439A607B681B680122A2
:1016B000134055D0544B1B681C22934319007B6880
:1016C0009A68514B0A431A607B685B68012B07D10B
:1016D0004D4B1A6880239B0213401FD101238BE0DE
:1016E0007B685B68002B07D1474B1A688023DB00BF
:1016F000134013D101237FE07B685B68032B06D185
:10170000414B1B6E0222134008D1012374E03E4B73
:10171000DB6D0222134001D101236DE03A4B9B683F
:101720000722934319007B685A68374B0A439A6033
:10173000FFF7BAFA0300FB6009E0FFF7B5FA020011
:10174000FB68D31A2F4A934201D9032354E02E4B4E
:101750009B6838221A407B685B68DB009A42ECD1B8
:10176000274B1B68072213403A689A421ED2244B2B
:101770001B68072293431900214B3A680A431A60F9
:10178000FFF792FA0300FB6009E0FFF78DFA020011
:10179000FB68D31A1B4A934201D903232CE0184B50
:1017A0001B68072213403A689A42EED17B681B6897
:1017B0000422134009D0144B9B68164A13401900A9
:1017C0007B681A69104B0A439A6000F02BF80100FD
:1017D0000D4B9B681B0A0F221A400F4B9200D358E7
:1017E0001F2213400A00DA400C4B1A600C4B1B6896
:1017F0001800FFF7FFF903001800BD4604B080BDD4
:10180000002002408813000000100240FF84FFFF08
:10181000FFF0FFFFFF8FFFFFC82400082800002013
:101820002C00002080B582B000AF1C4B9B68382292
:1018300013400FD1194B1B68DB0A0722134001220A
:101840009A4013003B6039681548FEF75DFC0300C1
:101850007B601EE0114B9B6838221340082B02D19D
:10186000104B7B6015E00D4B9B6838221340202BFA
:1018700003D180231B027B600BE0084B9B6838225E
:101880001340182B03D1FA23DB017B6001E0002316
:101890007B607B681800BD4602B080BD001002402E
:1018A000006CDC0200127A0080B582B000AF786074
:1018B0007B68002B01D101234AE07B683D229B5CC1
:1018C000DBB2002B07D17B683C22002199547B6856
:1018D0001800FFF7E7F87B683D22022199547B68E6
:1018E0001A687B6804331900100000F095FA7B68D1
:1018F0004822012199547B683E22012199547B683A
:101900003F22012199547B684022012199547B6830
:101910004122012199547B684222012199547B681C
:101920004322012199547B684422012199547B6808
:101930004522012199547B684622012199547B68F4
:101940004722012199547B683D22012199540023AB
:101950001800BD4602B080BD80B584B000AF78608D
:101960007B683D229B5CDBB2012B01D0012337E079
:101970007B683D22022199547B681B68DA687B688A
:101980001B6801210A43DA607B681B68164A934290
:1019900004D07B681B68154A934216D17B681B688C
:1019A0009B68134A1340FB60FB68062B16D0FA684D
:1019B00080235B029A4211D07B681B681A687B689F
:1019C0001B6801210A431A6008E07B681B681A68DB
:1019D0007B681B6801210A431A6000E0C0460023AF
:1019E0001800BD4604B080BD002C0140000400403A
:1019F0000700010080B582B000AF78607B68002BE3
:101A000001D101234AE07B683D229B5CDBB2002BC5
:101A100007D17B683C22002199547B68180000F0B4
:101A200041F87B683D22022199547B681A687B68E3
:101A300004331900100000F0EFF97B6848220121FF
:101A400099547B683E22012199547B683F220121F1
:101A500099547B684022012199547B6841220121DD
:101A600099547B684222012199547B6843220121C9
:101A700099547B684422012199547B6845220121B5
:101A800099547B684622012199547B6847220121A1
:101A900099547B683D220121995400231800BD46CA
:101AA00002B080BD80B582B000AF7860C046BD4650
:101AB00002B080BD80B582B000AF78607B681B68E3
:101AC0001B6902221340022B24D17B681B68DB6850
:101AD00002221340022B1DD17B681B680322524255
:101AE0001A617B6801221A777B681B689B69032255
:101AF000134004D07B68180000F076F907E07B689B
:101B0000180000F069F97B68180000F075F97B682F
:101B100000221A777B681B681B6904221340042B80
:101B200025D17B681B68DB6804221340042B1ED17F
:101B30007B681B68052252421A617B6802221A7771
:101B40007B681B689A69C0239B00134004D07B68A4
:101B5000180000F049F907E07B68180000F03CF934
:101B60007B68180000F048F97B6800221A777B68D0
:101B70001B681B6908221340082B24D17B681B6853
:101B8000DB6808221340082B1DD17B681B680922E3
:101B900052421A617B6804221A777B681B68DB69F2
:101BA0000322134004D07B68180000F01DF907E001
:101BB0007B68180000F010F97B68180000F01CF931
:101BC0007B6800221A777B681B681B691022134010
:101BD000102B25D17B681B68DB6810221340102B6B
:101BE0001ED17B681B68112252421A617B68082251
:101BF0001A777B681B68DA69C0239B00134004D006
:101C00007B68180000F0F0F807E07B68180000F02F
:101C1000E3F87B68180000F0EFF87B6800221A7781
:101C20007B681B681B6901221340012B0FD17B6865
:101C30001B68DB6801221340012B08D17B681B68FD
:101C4000022252421A617B681800FEF7F7FE7B6899
:101C50001B681B6980221340802B0FD17B681B6897
:101C6000DB6880221340802B08D17B681B688122AF
:101C700052421A617B68180000F0DEFB7B681B682B
:101C80001A6980235B001A4080235B009A420ED1C0
:101C90007B681B68DB6880221340802B07D17B6840
:101CA0001B681C4A1A617B68180000F0CDFB7B683A
:101CB0001B681B6940221340402B0FD17B681B68B7
:101CC000DB6840221340402B08D17B681B6841220F
:101CD00052421A617B68180000F096F87B681B6816
:101CE0001B6920221340202B0FD17B681B68DB6807
:101CF00020221340202B08D17B681B6821225242EE
:101D00001A617B68180000F08FFBC046BD4602B028
:101D100080BDC046FFFEFFFF80B586B000AFF86013
:101D2000B9607A601723FB1800221A70FB683C2206
:101D30009B5C012B01D1022348E0FB683C2201217E
:101D400099547B68142B35D87B689A00214BD318A3
:101D50001B689F46FB681B68BA681100180000F0FA
:101D6000C7F82CE0FB681B68BA681100180000F087
:101D70003FF924E0FB681B68BA681100180000F006
:101D8000B5F91CE0FB681B68BA681100180000F088
:101D90002FFA14E0FB681B68BA681100180000F005
:101DA0008BFA0CE0FB681B68BA681100180000F0A1
:101DB000DDFA04E01723FB1801221A70C046FB6805
:101DC0003C22002199541723FB181B781800BD46AC
:101DD00006B080BD0825000880B582B000AF7860ED
:101DE000C046BD4602B080BD80B582B000AF78600D
:101DF000C046BD4602B080BD80B582B000AF7860FD
:101E0000C046BD4602B080BD80B582B000AF7860EC
:101E1000C046BD4602B080BD80B584B000AF7860DA
:101E200039607B681B68FB607B682B4A934203D058
:101E30007B682A4A934208D1FB6870229343FB6077
:101E40003B685B68FA681343FB607B68224A9342F5
:101E50000FD07B68214A93420BD07B68204A934283
:101E600007D07B681F4A934203D07B681E4A934287
:101E700008D1FB681D4A1340FB603B68DB68FA68C9
:101E80001343FB60FB68802293431A003B685B6945
:101E90001343FB607B68FA681A603B689A687B684A
:101EA000DA623B681A687B689A627B680A4A9342E6
:101EB00007D07B680B4A934203D07B680A4A93425F
:101EC00003D13B681A697B681A637B6801225A61F7
:101ED000C046BD4604B080BD002C01400004004057
:101EE000002000400044014000480140FFFCFFFF8B
:101EF00080B586B000AF786039607B681B6A0122CC
:101F000093431A007B681A627B681B6A7B617B685B
:101F10005B683B617B689B69FB60FB682E4A1340F2
:101F2000FB60FB6803229343FB603B681B68FA6815
:101F30001343FB607B69022293437B613B689B6890
:101F40007A6913437B617B68244A934207D07B689C
:101F5000234A934203D07B68224A93420CD17B6987
:101F6000082293437B613B68DB687A6913437B619A
:101F70007B69042293437B617B68184A934207D0B4
:101F80007B68174A934203D07B68164A934211D16B
:101F90003B69154A13403B613B69144A13403B615E
:101FA0003B685B693A6913433B613B689B693A69EB
:101FB00013433B617B683A695A607B68FA689A61AF
:101FC0003B685A687B685A637B687A691A62C046C4
:101FD000BD4606B080BDC0468FFFFEFF002C01400D
:101FE0000044014000480140FFFEFFFFFFFDFFFFEE
:101FF00080B586B000AF786039607B681B6A1022BC
:1020000093431A007B681A627B681B6A7B617B685A
:102010005B683B617B689B69FB60FB682C4A1340F3
:10202000FB60FB682B4A1340FB603B681B681B028C
:10203000FA681343FB607B69202293437B613B6812
:102040009B681B017A6913437B617B68224A934238
:102050000DD17B69802293437B613B68DB681B0168
:102060007A6913437B617B69402293437B617B6880
:10207000194A934207D07B68184A934203D07B6881
:10208000174A934213D13B69164A13403B613B699F
:10209000154A13403B613B685B699B003A691343F7
:1020A0003B613B689B699B003A6913433B617B68DA
:1020B0003A695A607B68FA689A613B685A687B683B
:1020C0009A637B687A691A62C046BD4606B080BDD5
:1020D000FF8FFFFEFFFCFFFF002C0140004401408A
:1020E00000480140FFFBFFFFFFF7FFFF80B586B010
:1020F00000AF786039607B681B6A334A1A407B689E
:102100001A627B681B6A7B617B685B683B617B68EA
:10211000DB69FB60FB682D4A1340FB60FB68032210
:102120009343FB603B681B68FA681343FB607B6961
:10213000274A13407B613B689B681B027A69134303
:102140007B617B68234A93420DD17B69224A13400D
:102150007B613B68DB681B027A6913437B617B69A7
:102160001E4A13407B617B681A4A934207D07B6802
:102170001B4A934203D07B681A4A934213D13B69AE
:10218000194A13403B613B69184A13403B613B6865
:102190005B691B013A6913433B613B689B691B0107
:1021A0003A6913433B617B683A695A607B68FA6815
:1021B000DA613B685A687B68DA637B687A691A621D
:1021C000C046BD4606B080BDFFFEFFFF8FFFFEFF8D
:1021D000FFFDFFFF002C0140FFF7FFFFFFFBFFFFAC
:1021E0000044014000480140FFEFFFFFFFDFFFFF19
:1021F00080B586B000AF786039607B681B6A264A7C
:102200001A407B681A627B681B6A3B617B685B686B
:102210007B617B68DB69FB60FB68204A1340FB60E5
:10222000FB681F4A1340FB603B681B681B02FA688F
:102230001343FB603B691B4A13403B613B689B684F
:102240001B033A6913433B617B68174A934207D0EB
:102250007B68164A934203D07B68154A934209D1A2
:102260007B69144A13407B613B685B699B017A6917
:1022700013437B617B687A695A607B68FA68DA612C
:102280003B685A687B681A647B683A691A62C04680
:10229000BD4606B080BDC046FFEFFFFFFF8FFFFECB
:1022A000FFFCFFFFFFDFFFFF002C01400044014067
:1022B00000480140FFBFFFFF80B586B000AF7860E7
:1022C00039607B681B6A234A1A407B681A627B6804
:1022D0001B6A3B617B685B687B617B685B6DFB6055
:1022E000FB681D4A1340FB603B681B68FA68134398
:1022F000FB603B69194A13403B613B689B681B04C8
:102300003A6913433B617B68154A934207D07B6867
:10231000144A934203D07B68134A934209D17B69E4
:102320000C4A13407B613B685B691B027A6913436B
:102330007B617B687A695A607B68FA685A653B689A
:102340005A687B689A657B683A691A62C046BD46DE
:1023500006B080BDFFFFFEFF8FFFFEFFFFFFFDFF0A
:10236000002C0140004401400048014080B586B087
:1023700000AF786039607B681B6A244A1A407B682A
:102380001A627B681B6A3B617B685B687B617B6868
:102390005B6DFB60FB681E4A1340FB603B681B687B
:1023A0001B02FA681343FB603B691A4A13403B6106
:1023B0003B689B681B053A6913433B617B68164A7F
:1023C000934207D07B68154A934203D07B68144A36
:1023D000934209D17B69134A13407B613B685B6977
:1023E0009B027A6913437B617B687A695A607B68D8
:1023F000FA685A653B685A687B68DA657B683A69AF
:102400001A62C046BD4606B080BDC046FFFFEFFF62
:10241000FF8FFFFEFFFFDFFF002C01400044014063
:1024200000480140FFFFFBFF80B582B000AF78603D
:10243000C046BD4602B080BD80B582B000AF7860B6
:10244000C046BD4602B080BD80B582B000AF7860A6
:10245000C046BD4602B080BD70B500260C4D0D4C87
:10246000641BA410A64209D1002600F021F80A4DF1
:102470000A4C641BA410A64205D170BDB300EB58F2
:1024800098470136EEE7B300EB5898470136F2E77C
:102490005C2500085C2500085C2500086025000814
:1024A00003008218934200D1704719700133F9E795
:1024B000F8B5C046F8BC08BC9E467047F8B5C046A3
:0824C000F8BC08BC9E46704701
:1024C8000000000000000000000000000000000004
:1024D80000000000000000000000000000000000F4
:1024E80001000000020000000300000004000000DA
:1024F80006000000070000000800000009000000B6
:10250800541D0008B41D0008B41D0008B41D0008BF
:10251800641D0008B41D0008B41D0008B41D00089F
:10252800741D0008B41D0008B41D0008B41D00087F
:10253800841D0008B41D0008B41D0008B41D00085F
:10254800941D0008B41D0008B41D0008B41D00083F
:04255800A41D0008B6
:04255C00E90000088A
:04256000C1000008AE
:102564000004005007000000000000500C000000B0
:1025740000000050000000000102000201000201FE
:10258400020000015E010000006CDC020400000097
:042594000100000042
:0400000508000B558F
:00000001FF
